:0200000097293E
:0E000600F201F101F001F801F30100300800F1
:100014007B15FB1F14280130F300F201F101F001FC
:08002400FA0DF20CFF30080098
:08002C00FA1FF2130030080076
:100034007B14FB1F2528F201FA1FFF30F200F100A8
:0A004400F000FA0DF20CFF30080086
:10004E00A0017208031D3C287108F2007008F1002F
:10005E00F001A0157208031D3C287108F200F10191
:10006E00A0112016720803194A282008F302031D56
:10007E00031C4E280310F21B5228F00DF10DF20D49
:10008E00F30B42284E280130FC0003205528023085
:0E009E00FC000A2055280430FC001620080043
:0600AC00FB15FF30080007
:1000B200FB14FB1F6328FF30F300F200F100F00095
:0800C200FA0DF20CFF300800FA
:1000CA00831203137408003A031D80287508003A46
:1000DA00031D80287608003A031D80287708003A15
:1000EA00031D8028FF30F000FF30F1007F30F2005E
:1000FA00FF30F3001B2983120313770803190F2912
:10010A00730803191229720876068039FA00F21761
:10011A00F617A0017208F8007108FC007008FD00CB
:10012A007408FD027508031C750FFC027608031C8F
:10013A00760FF802F801FC01FD01031CAB2803103D
:10014A00F20CF10CF00CF80C0130A0007708F30265
:10015A00031CB5287E302007F30703181529BA288F
:10016A007E302007F307031C18291830FA07FD0D03
:10017A00FC0DF80DF00DF10DF20DA00D7408F00252
:10018A007508031C750FF1027608031C760FF2023C
:10019A00760DA004201CD3287D14DE287408F007ED
:1001AA0075080318750FF10776080318760AF2071F
:1001BA007D10FA031F307A05031DBC287B1B7D1CAA
:1001CA0005290310F00DF10DF20DA00D7408F002CF
:1001DA007508031C750FF1027608031C760FF202EC
:1001EA00760D20040139FD070318FC0A0319F80AE1
:1001FA00031D0529F80CFC0CFD0CF30A031915293B
:10020A00FA1FF8137808F2007C08F1007D08F00064
:10021A0000301A29013056201A29023003201A29DF
:0E022A00043059201A2908300A20000008006C
:1002380083120313FB017308031959297208FA0082
:10024800F2178E30F302F31F5C29F309F30A083022
:100258007302031C3F29F300F10D7208F100F2014B
:1002680008307302031C3F29F300F10DF1017308F4
:10027800031D031047297308031947290310F20CBB
:10028800F10CF30B42297B1B711C5129031C5129CA
:10029800F10A0319F20AF21B6829FA1F6B29F209FD
:1002A800F109F10A0319F20A6B29F201F1016B292C
:1002B8007B14FB1F6E29F201FA1F6E29FF30F20032
:1002C800F100FA0DF20C6E290130FC0070290030A3
:1002D800FC007029FF30FC00FC08031974291A205F
:0A02E8007108F0007208F100080030
:1002F200831203137008F8007108F000F101F20193
:10030200F301FB01FC019630F300FA01F01F8F2983
:10031200F809F009F80A0319F00AFA177008F1004F
:0C0322007808F000F801F2012720080024
:10032E000430831603138600831290018F018E0111
:10033E0006141030FD00FD0BA22900000610061950
:10034E00A929A6291014061DAD29AA2910100F08D7
:10035E00F100F0010E08F0040030F1047008A30063
:10036E007108A4007921AE30F4004730F5006B30EF
:10037E00F6008430F70065200030F4000030F50000
:10038E002030F6008130F70065201C217008A30094
:10039E007108A4007008013EF20000300318013EFF
:1003AE007107F3007208A3007308A400803073066F
:1003BE00F00080307002031DE62902307202031C29
:1003CE001B2A8030F000803024067002031DF129B4
:1003DE002308323C031C1B2A8615A501A60180307A
:1003EE002606F00080307002031DFF2932302502F0
:1003FE0003181A2A06160F30FC004730FD00FD0BBD
:10040E00062AFC0B062A0000000006127430FC00BF
:10041E009430FD00FD0B112AFC0B112A0000A50AD9
:10042E000319A60AF629422A8611A501A6018030D3
:10043E002606F00080307002031D272A3230250276
:10044E000318422A06160630FC003030FD00FD0B64
:10045E002E2AFC0B2E2A000006127D30FC00AB303B
:10046E00FD00FD0B382AFC0B382A00000000A50AFF
:0A047E000319A60A1E2A9D29432A2D
:02400E006A2125
:00000001FF
